:020000040800F2
:100000000050002025120008C90C0008CB0C000885
:10001000CD0C0008CF0C0008D10C00080000000037
:10002000000000000000000000000000D30C0008E9
:10003000D50C000800000000D70C0008D90C0008FF
:100040006D1200086D1200086D1200086D12000894
:100050006D1200086D1200086D1200086D12000884
:100060003D0C00086D1200086D1200086D120008AA
:100070006D120008F51100086D1200086D120008DD
:100080006D1200086D1200086D1200086D12000854
:100090006D1200086D1200086D1200086D12000844
:1000A0006D1200086D1200086D1200086D12000834
:1000B0006D1200086D120008190F00086D1200087B
:1000C0006D1200086D1200086D1200086D12000814
:1000D0006D1200086D1200086D1200086D12000804
:1000E0006D1200086D1200086D120008000000007B
:1000F0000000000000000000000000000000000000
:0C01000000000000000000005FF808F1A3
:10010C0010B5054C237833B9044B13B10448AFF345
:10011C0000800123237010BD440400200000000067
:10012C00001B000808B5034B1BB103490348AFF390
:10013C00008008BD0000000048040020001B0008DF
:10014C0000F00700C0F1070CBCF1040F28BF4FF002
:10015C00040C031D062B0CD9C31E4FF0FF3000FA04
:10016C000CFC21EA0C019940984022EA000008435B
:10017C0070470023F1E7000000B583B00E4B5A69BD
:10018C0042F001025A615B6903F001030193019B88
:10019C000A4BD86800221146C0F30220FFF7D0FFAB
:1001AC000001C0B2064B83F80D034FF400521A60E5
:1001BC0003B05DF804FB00BF0010024000ED00E04E
:1001CC0000E100E02DE9F0418CB000240A940B947E
:1001DC0005940694079408940994484B9A6942F044
:1001EC0010029A619A6902F010020492049A9A69B8
:1001FC0042F020029A619A6902F020020392039A5B
:10020C009A6942F004029A619A6902F0040202921D
:10021C00029A9A6942F008029A619B6903F00803FA
:10022C000193019B36484FF400534361354D032332
:10023C006B61354B0593012606964FF00208CDF8FD
:10024C001C8005A901F078F840F20333059306965B
:10025C00CDF81C80089405A9284601F06DF82B4AAE
:10026C00936823F470634FF4706191FAA1F1936079
:10027C0004270A978DF82C608DF82D408DF82E8070
:10028C000AA800F0EFFFEB6823F0040397FAA7F736
:10029C00B7FA87F7BE401E43EE602A6840F204436B
:1002AC0093FAA3F1B1FA81F101FA08F10F2000FAE7
:1002BC0001F122EA010293FAA3F3B3FA83F303FAEE
:1002CC0008F3082101FA03F313432B60104BD86891
:1002DC0022462146C0F30220FFF732FF0001C0B2D4
:1002EC000C4B83F808034FF48072C3F88020BFF3E3
:1002FC004F8FBFF36F8F0CB0BDE8F0810010024040
:10030C0000100140000801402000200400000140C2
:10031C0000ED00E000E100E030B593B028220021B0
:10032C0008A801F0F7FA00240394049405940694A9
:10033C0007941F4B9A6942F480529A619A6902F4AD
:10034C0080520292029A9A6942F004029A619B6965
:10035C0003F004030193019B4AF2A00303930923C6
:10036C00049303230593134D03A9284600F0E4FFDF
:10037C0044F2400303930423049303A9284600F09A
:10038C00DBFF08944FF4827309930A940B940C943A
:10039C004FF400730D9320230E930F9410940A23A3
:1003AC00119308A9044801F0A7F813B030BD00BFA1
:1003BC0000100240000801400030014030B593B0FD
:1003CC002822002108A801F0A5FA00240394049423
:1003DC000594069407941E4BDA6942F48042DA6164
:1003EC00DA6902F480420292029A9A6942F0080297
:1003FC009A619B6903F008030193019B154B0393CE
:10040C000923049303230593134D03A9284600F0F5
:10041C0093FF124B03930423049303A9284600F083
:10042C008BFF08944FF4827309930A940B940C94E9
:10043C004FF400730D9318230E930F9410940A230A
:10044C00119308A9064801F057F813B030BD00BF4E
:10045C0000100240A000A004000C01404000400429
:10046C000038004030B58FB00024079408940994EC
:10047C000A940B940C940D94029403940494059494
:10048C000694214B9A6942F480429A619A6902F46B
:10049C0080420192019A9A6942F004029A619B6926
:1004AC0003F004030093009B184B0293092303935E
:1004BC0003230493164D02A9284600F03DFF154B6B
:1004CC0002930423039302A9284600F035FF4FF44E
:1004DC00E1330793089409940A940C230B930C941E
:1004EC000D940D4C07A9204601F05EF9236923F405
:1004FC0090432361636923F02A036361E36843F447
:10050C000053E3600FB030BD001002400200020443
:10051C0000080140040004040038014010B586B006
:10052C000024019402940394049405941D4BDA69FD
:10053C0042F00402DA61DB6903F004030093009BD0
:10054C00194BD86822462146C0F30220FFF7F8FD6C
:10055C000001C0B2154B83F81E034FF080421A60A5
:10056C007723ADF80430029440F2E73303930494FC
:10057C000F4C01A9204601F0C1F8236823F0800339
:10058C002360A36823F4804323F00703A36063680C
:10059C0023F070036360A36823F08003A36006B0AC
:1005AC0010BD00BF0010024000ED00E000E100E0D3
:1005BC000008004070B594B000240F94109411946E
:1005CC00129413942022214607A801F0A3F9029457
:1005DC000394049405940694434EF36943F0020388
:1005EC00F361F36903F002030193019B3F4B1A6B18
:1005FC0022F4804222F0100242F010021A631A6BAD
:10060C0022F4405242F400521A631A6B42F0200258
:10061C001A631A6B22F040021A631A6B42F08002C2
:10062C001A631A6B22F4407242F480721A631A6BCA
:10063C0022F4406242F480621A63ADF83C4010949C
:10064C004F23119312942A4D0FA9284601F056F806
:10065C002B6823F080032B60AB6823F4804323F0DA
:10066C000703AB604FF08042D2F8183443F0080314
:10067C00C2F8183460230793089409940A940B94D5
:10068C0007AA0121284601F071F81A4A136823F0D1
:10069C00040313606B6823F070036B60AB6823F08A
:1006AC008003AB60B36943F00803B361B36903F033
:1006BC0008030093009B41F2100302930923039358
:1006CC0002230493059402A90B4800F035FE0B4A53
:1006DC00536823F0E06323F4406343F0E06343F496
:1006EC000063536014B070BD001002400000024063
:1006FC000004004018040040000C014000000140C0
:10070C0070B594B000240F94109411941294139417
:10071C002022214607A801F0FDF8029403940494CA
:10072C00059406942E4EF36943F00103F361F369CB
:10073C0003F001030193019BFA23ADF83C3041F225
:10074C00EB3311930FA94FF0804000F0D7FF4FF01F
:10075C0080452B6823F080032B60AB6823F4804327
:10076C0023F00703AB60AB6943F00803AB61602374
:10077C000793089409940A940B9407AA012128461C
:10078C0000F0F4FF174A136823F0040313606B683E
:10079C0023F070036B60AB6823F08003AB60B3692C
:1007AC0043F00403B361B36903F004030093009BAB
:1007BC000D4B02930923039302230493059402A97E
:1007CC000A4800F0B9FD0A4A536823F0E06323F4A9
:1007DC00407343F0E06343F48073536014B070BD16
:1007EC000010024018000040800080040008014006
:1007FC000000014010B52A4A136823F0070343F0A8
:10080C0002031360264B1B6803F00703022BF9D17C
:10081C00244A136843F480331360224B1B6813F48F
:10082C00003FFAD01F4A536A43F0010353621D4B39
:10083C005B6A13F0020FFAD01A4A536823F47C1344
:10084C0043F4C8135360136843F080731360154B63
:10085C001B6813F0007FFAD0124B5A6822F0F0029A
:10086C005A605A6822F4E06242F480625A605A6814
:10087C0022F460525A605A6822F0030242F00202DB
:10088C005A60084B5B6803F00C03082BF9D1064C3B
:10089C00204600F0EFFF204601F012F810BD00BF1B
:1008AC0000200240001002400090D00300B583B03D
:1008BC001D4B9A6942F001029A619A6902F0010299
:1008CC000192019ADA6942F08052DA61DB6903F035
:1008DC0080530093009B1549CA6822F4E06212040D
:1008EC00120C134B1343CB60124B5A6822F0E0628C
:1008FC005A605A6842F000725A60FFF77BFFFFF7AC
:10090C0061FCFFF739FCFFF707FDFFF7ABFDFFF7C5
:10091C0051FEFFF703FEFFF7F3FEFFF74FFD00F06C
:10092C0095FB00F01FFBFCE70010024000ED00E01F
:10093C000003FA050000014082B00190084B1B68CF
:10094C00084AA2FB0323DB0D019A02FB03F301937C
:10095C00019B5A1E0192002BFAD102B0704700BFC6
:10096C0004000020B5FA9BEE82B00A4B9B6813F092
:10097C00020FFAD0074B1873064B9B6813F0010F4C
:10098C00FAD0044BDB68DBB28DF807309DF807001A
:10099C0002B070470038004010B50446074B0222E5
:1009AC005A61FFF7E1FF072C03D1044B02221A61B5
:1009BC0010BDFF20FFF7D8FFF7E700BF000801408C
:1009CC0070B50C46054D02266E6140F02000FFF715
:1009DC00CBFF2046FFF7C8FF2E6170BD0008014019
:1009EC0038B5074C022565615020FFF7BDFF01208B
:1009FC00FFF7A2FF7320FFF7B7FF256138BD00BFDB
:100A0C000008014070B50E461546094B02225A618A
:100A1C00FFF7AAFF002405E0FF20FFF7A5FF3055E4
:100A2C000134E4B2AC42F7D3014B02221A6170BD1F
:100A3C000008014070B50E4615460A4B02225A6159
:100A4C0040F02000FFF790FF002404E0305DFFF73A
:100A5C008BFF0134E4B2AC42F8D3024B02221A6190
:100A6C0070BD00BF0008014038B5054C022565611A
:100A7C00E120FFF779FF0120FFF75EFF256138BD0C
:100A8C000008014038B5054C02256561E220FFF7EE
:100A9C006BFF0120FFF750FF256138BD00080140B6
:100AAC0008B50020FFF778FF40F00301C9B2002021
:100ABC00FFF786FF054B01221A619620FFF73CFFDA
:100ACC00FFF7E0FFFFF7D0FF08BD00BF00080140B3
:100ADC0070B50124254B5C61254D4FF400566E61B9
:100AEC0041F28830FFF728FF0A210020FFF768FF4A
:100AFC0041F28830FFF720FF21462046FFF760FFC8
:100B0C0021460220FFF75CFF21460320FFF758FF28
:100B1C005F210420FFF754FFFFF762FF00211D2027
:100B2C00FFF74EFF00211C20FFF74AFF7021072022
:100B3C00FFF746FF32210520FFF742FF062108464A
:100B4C00FFF73EFF0B4C032221461020FFF772FFEC
:100B5C00032221460A20FFF76DFF03211120FFF726
:100B6C002FFFFFF79DFF2E6170BD00BF00080140F5
:100B7C00001001400000002010B504460B4B9B6890
:100B8C0013F0040FFAD10720FFF706FF10F0400F07
:100B9C0001D1FF2010BD032221466120FFF732FF57
:100BAC0040210720FFF70CFF0020F3E7000801406D
:100BBC0000B583B01B49CB681A0402F00052DB432A
:100BCC0003F4005313430B61174B1B88ADF804302F
:100BDC0000238DF806300720FFF7DEFE10F0400FE3
:100BEC0002D103B05DF804FB104B4AF6AA221A603E
:100BFC00032201A96120FFF705FF40210720FFF721
:100C0C00DFFE01A800F024F88DF80000C0F30723E4
:100C1C008DF80130C0F307408DF80200009800F009
:100C2C003BF8DEE700100140181B000800300040C4
:100C3C0008B5064B5B6913F0040F00D108BD034BDC
:100C4C0004225A61FFF7B4FFF8E700BF000401402B
:100C5C0082B003460020ADF800008DF802001A782F
:100C6C008DF800205A788DF801209B788DF8023091
:100C7C00009BADF804301B0C8DF806309DF8043049
:100C8C0063F307009DF8053063F30F209DF80630E1
:100C9C0063F3174002B0704700B583B001909DF824
:100CAC00040000F0E9F99DF8050000F0E3F89DF868
:100CBC00060000F003F903B05DF804FBFEE7FEE765
:100CCC00FEE7FEE7FEE770477047704770477047D6
:100CDC00142900D9704708B50346C1EB01200A4A14
:100CEC0082FB00ECC017C0EBEC00C1EBC1010901A9
:100CFC0082FB01C2C917C1EBE2010022C9B2C0B22A
:100D0C0000F0CEF908BD00BF6766666638B50128ED
:100D1C0017D0022826D040B138BD0021E0B2FFF731
:100D2C00D7FF0134072CF8DDF6E70024FAE704F1CD
:100D3C0010000021C0B2FFF7CBFF0134072CF6DD09
:100D4C00EAE70024FAE7ECB200212046FFF7C0FFE7
:100D5C0004F110000021C0B2FFF7BAFF0135072DD6
:100D6C00F1DDD9E70025FAE738B504460D460F4BFF
:100D7C005B7B012B09D0022B0CD003B138BDC0F129
:100D8C000700C0B2FFF7A4FFF8E71030C0B2FFF7BE
:100D9C009FFFF3E7C0F10700C0B2FFF799FF04F122
:100DAC0010002946C0B2FFF793FFE7E708000020C8
:100DBC0010B52F4B1B7B032B52D8DFE803F0021F1F
:100DCC002C4B2B4A536801335360142B05DD13460F
:100DDC0000225A601A6801321A60254B18680828DC
:100DEC0005D0234B1979C0B2FFF7BEFF38E00022C3
:100DFC001A6001221A7332229A6033E01C4A9368FB
:100E0C00013B9360002B2BDC134602221A73142136
:100E1C0059609A6024E0164A9368013B9360002B5A
:100E2C001EDC5368013B5360002B01DB00240BE0FC
:100E3C00134603221A7314229A6013E00C4B19798F
:100E4C00E0B2FFF791FF0134072CF7DD084B0322CA
:100E5C009A6005E0064A9368013B9360002B02DD23
:100E6C0000F05CF910BD134600221A73FAE700BFBC
:100E7C00080000200F4B5B7B83421AD010B50E4A42
:100E8C00136823F0010313600A4C60730220FFF710
:100E9C003DFF00F043F9002323606360A3602373DC
:100EAC00637B032B04D0044A136843F001031360E3
:100EBC0010BD70470800002000080040052813D81A
:100ECC0038B5054608240AE005EB450000EB001098
:100EDC00A3B200221146C0B200F0E2F801340F2C8C
:100EEC00F2DD00F01BF938BD7047000008B5064A6A
:100EFC00D36843F00103D3600020FFF7DFFF03202A
:100F0C00FFF7B8FF08BD00BF0008004008B5034B51
:100F1C006FF001021A61FFF74BFF08BD000800409B
:100F2C00034B1B6813F0800FFAD0014B58607047CD
:100F3C000038014070B5064600F03EFD0546002421
:100F4C0003E0305DFFF7ECFF0134AC42F9D370BD28
:100F5C0008B5FFF7EFFF0A20FFF7E2FF0D20FFF7C0
:100F6C00DFFF08BD7047000000B583B0244B5B6AFF
:100F7C0013F0005F25D1234B9B6813F0040FFAD1BB
:100F8C00214B1B88ADF8043000238DF8063001A8E6
:100F9C00FFF7F2FD01A8FFF75BFE8DF80000C0F330
:100FAC0007238DF80130C0F307408DF8020000983C
:100FBC00FFF772FE154B4FF480721A6003B05DF8A8
:100FCC0004FB0F4A536A43F0807353621048FFF7D7
:100FDC00B1FF1048FFF7BCFF0CE00F49CB681A04B7
:100FEC0002F00052DB4303F4005313430B61FA206D
:100FFC0000F050FC034B9B6813F0040FEDD1BFE7DE
:10100C0000100240000801401C1B000800E100E039
:10101C00381B0008401B0008001001400A4B4CF61E
:10102C00CC421A6045F255521A6006225A602822A8
:10103C009A60054BDB6813F0030FFAD1024B4AF6AA
:10104C00AA221A60704700BF0030004008B5094A58
:10105C00136843F040031360FFF73AFD00F074F897
:10106C0000F00FF8FFF742FFFFF77EFFFFF7D6FF08
:10107C0008BD00BF00380040FF304FF0804358637C
:10108C00704708B58020FFF7F7FF4FF080431A6ACE
:10109C0042F001021A621A6842F001021A6008BD9D
:1010AC00F0B54FF0000E0DE0152717E0152627E0E0
:1010BC0015250CF1100C184C24F81C500EF1010ED7
:1010CC005FFA8EFEBEF1070F24D87546CEF10704E9
:1010DC0040FA04F616F0010FE6D0352703EB430C6B
:1010EC004FEACC0C0CF12D0CAC440CF108060A4D5B
:1010FC0025F8167041FA04F515F0010FD6D03526F7
:10110C00054D25F81C6042FA04F414F0010FCFD001
:10111C003525CEE7F0BD00BF60040020094A536BB3
:10112C001B0C1B0443F41B7343F001035363136B3D
:10113C0043F001031363A2F5FE32136A43F001037B
:10114C00136270470000024010B523490B6823F06E
:10115C0001030B60214B1A6B22F001021A635A6BCC
:10116C00120C120442F41B7242F001025A631C4A24
:10117C00DA631C4A9A631A6B42F020021A63CA683B
:10118C0042F48052CA601A6B42F002021A631A6B64
:10119C0022F004021A631A6B22F008021A634FF44D
:1011AC0000725A604FF400625A604FF480625A60C9
:1011BC00002406E0A3B2002211461046FFF770FF90
:1011CC000134172CF6D9044A136843F00103136059
:1011DC00FFF7A4FF10BD00BF000400400000024058
:1011EC006004002034040040094B1B6813F4007F9A
:1011FC000CD0074B4FF400725A601A6B22F00102AC
:10120C001A63044A136A23F001031362704700BF88
:10121C000000024000040040002103E00B4B5B582F
:10122C00435004310A480B4B42189A42F6D30A4AEF
:10123C0002E0002342F8043B084B9A42F9D3FFF733
:10124C0046FD00F043FBFFF731FB70475C1B0008C9
:10125C000000002044040020440400204009002029
:10126C00FEE7000010B403460079002853D01A683A
:10127C00002A5DD05879012818D0022821D058B105
:10128C0001209A79002A51D0022A2FD0032A38D073
:10129C00012A20D0012049E026494C6824EA0202A8
:1012AC004A601A680C6822430A60EAE72149086818
:1012BC0020EA02020A601A68486802434A60002069
:1012CC00DFE71C49086802430A601A684868024351
:1012DC004A600020D5E71C68164AD16821EA04014F
:1012EC00D1601B6891680B4393601FE01C68114A26
:1012FC00916821EA040191601B68D1680B43D360AB
:10130C0014E019680B4A9468214391601B68D168FA
:10131C000B43D3600AE0074A11681C6821EA0401F8
:10132C0011601968536823EA0103536010BC7047BD
:10133C000020FBE70004014070B50B68C3F30F2ECF
:10134C009EFAAEF2B2FA82F234E0A2F108044FF047
:10135C000113A34043F08063C4684FEA132C24EAC2
:10136C0013249CFAACFCBCFA8CFC0D6905FA0CFC41
:10137C0044EA0C04C4601D0E93FAA3F4B4FA84F48A
:10138C00A4004FF00F0C0CFA04F4465926EA04049E
:10139C0093FAA3FCBCFA8CFC4FEA8C0C4E6806FA50
:1013AC000CFC44EA0C0444514C68012C10D0092C60
:1013BC000ED001323EFA02F339D00123934013EAE6
:1013CC000E0FF6D0072AC0D840F201139340C3E7A2
:1013DC004FEA136C50F80C5093FAA3F4B4FA84F45B
:1013EC00A400032606FA04F425EA040593FAA3F4F0
:1013FC00B4FA84F4A4008E6806FA04F42C4340F882
:10140C000C4093FAA3F5B5FA85F5AD00042606FA5F
:10141C0005F524EA050493FAA3F3B3FA83F39B00CE
:10142C00CD6805FA03F3234340F80C30C1E70020E4
:10143C0070BD0000034B5B68C3F30313024AD35C1B
:10144C00D840704700100240201B0008034B5B681B
:10145C00C3F30223024AD35CD84070470010024009
:10146C00301B0008034B5B68C3F3C223024AD35CF6
:10147C00D840704700100240301B00080B4B5B68D3
:10148C0003F4803343B90A48084B5B68C3F38343C6
:10149C00023303FB00F07047044B5868C0F3404024
:1014AC00431C0448B0FBF3F0EEE700BF0010024011
:1014BC0000093D0000127A0008B5054B5B6803F08B
:1014CC000C03082B01D0034808BDFFF7D7FFFBE73F
:1014DC000010024000127A0010B50446FFF7ECFF32
:1014EC002060FFF7A7FF6060FFF7B0FFA0606068A7
:1014FC00FFF7B8FFE06010BD036813F0400F29D16F
:10150C0010B4026822F47F4222F0BF020B684C68D0
:10151C0023438C682343CC6823430C6923434C69D5
:10152C0023438C692343CC6923430C6A2343134321
:10153C000360436823F00403CA8A134343600B6AB5
:10154C00B3F5005F02D0002010BC70478B8C036198
:10155C000020F9E70120704730B4036A23F001033F
:10156C000362036A4468826922F073020D682A439D
:10157C0023F002030D692B4323F001034D682B4329
:10158C000F4DA84207D044608261CA68426303626F
:10159C00002030BC704723F008034D6943EA8503F3
:1015AC0023F004038D6843EA850324F480748D6969
:1015BC002C4324F40074CD6944EA4504E3E700BFEE
:1015CC00002C014030B4036A23F010030362036A59
:1015DC004468826922F4E6420D6842EA052223F04F
:1015EC0020030D6943EA051323F010034D6843EA09
:1015FC000513104DA84207D044608261CA6882630B
:10160C000362002030BC704723F080034D6943EA2D
:10161C00851323F040038D6843EA851324F480641A
:10162C008D6944EA850424F40064CD6944EAC50458
:10163C00E2E700BF002C014030B4036A23F480734E
:10164C000362036A4468C26922F073020D682A437C
:10165C0023F400730D6943EA052323F480734D686A
:10166C0043EA05230F4DA84207D04460C261CA6803
:10167C00C2630362002030BC704723F400634D69E1
:10168C0043EA852323F480638D6843EA852324F49D
:10169C0080548D6944EA051424F40054CD6944EA5D
:1016AC004514E2E7002C014030B4036A23F4805364
:1016BC000362036A4468C26922F4E6420D6842EA96
:1016CC00052223F400530D6943EA053323F48053B8
:1016DC004D6843EA0533084DA84207D04460C26107
:1016EC00CA6802640362002030BC704724F4804452
:1016FC008D6944EA8514F1E7002C014003681A4A0D
:10170C0090420AD0B0F1804F07D0A2F594329042AB
:10171C0003D002F58062904203D123F070034A6833
:10172C001343114A90420AD0B0F1804F07D0A2F572
:10173C009432904203D002F58062904203D123F49C
:10174C004073CA68134303608B68C3620B8883625F
:10175C00054B984205D0436943F0010343610020D7
:10176C0070470B690363F6E7002C014008B50B4684
:10177C001146B3F5807F14D008D8012B0ED0102B56
:10178C0002D1FFF71FFF08E0012006E0B3F5805FF0
:10179C0002D1FFF789FF00E0012008BDFFF7DCFE56
:1017AC00FBE7FFF749FFF8E7C36813F4005F01D0CC
:1017BC000120704730B585B004460D46C36823F44C
:1017CC00B05323F00C034A68C9680A4329690A43D9
:1017DC001343C360AB68026922F4405213430361A4
:1017EC006B69426922F44072134343616846FFF708
:1017FC0073FE1C4B9C4208D01B4B9C420BD01B4BCA
:10180C009C420AD0012005B030BD039B43B32A682B
:10181C002AB90120F7E7029BF8E7029BF6E703EBF6
:10182C00830303EB83039200B3FBF2F31048A0FB9A
:10183C00032149090A0192B2642505FB11331B01EE
:10184C003233A0FB0313C3F34F1303F0F0010A442C
:10185C0092B203F00F0313449BB2A3600020D2E7B3
:10186C000120D0E70038014000440040004800400F
:10187C001F85EB51064BA3FB00239B09013B4FF04B
:10188C00E02253610023936105231361704700BF6D
:10189C00D34D621082B04FF0E0231B690193019B82
:1018AC00B0F1FF3F00D0013038B14FF0E0231B699D
:1018BC0013F4803FF8D00138F6E702B0704700000F
:1018CC00014B1860704700BF0400002070B50D4E2E
:1018DC000D4D761BB61006D0002455F8043B013490
:1018EC009847A642F9D1094E094D00F003F9761B31
:1018FC00B61006D0002455F8043B01349847A64294
:10190C00F9D170BD501B0008501B0008581B000873
:10191C00501B0008830730B548D0541E002A3FD016
:10192C000346CAB201E0013C3AD303F8012B9D07F0
:10193C00F9D1032C2DD9CDB245EA05250F2C45EA5A
:10194C00054536D9A4F1100222F00F0C03F1200E3C
:10195C00E6444FEA121C03F1100242E9045542E935
:10196C00025510327245F8D10CF1010214F00C0F33
:10197C0003EB021204F00F0C13D0ACF1040323F0B0
:10198C0003030433134442F8045B9342FBD10CF081
:10199C0003042CB1CAB21C4403F8012B9C42FBD1AA
:1019AC0030BD64461346002CF4D1F9E703461446C7
:1019BC00BFE71A46A446E0E720F0030110F003004D
:1019CC00C0F1000051F8043B00F1040C4FEACC0CC0
:1019DC006FF000021CBF22FA0CF213434FF0010C03
:1019EC004CEA0C2C4CEA0C4CA3EB0C0222EA030242
:1019FC0012EACC1204BF51F8043B0430F4D0C2F10B
:101A0C00000102EA0102B2FA82F2C2F11F0200EBFB
:101A1C00D2007047024B13B1024800F005B8704772
:101A2C0000000000411A0008002301461A4618461F
:101A3C0000F01AB838B5084B084D5B1B9C1007D04A
:101A4C00043B1D44013C55F804399847002CF9D14E
:101A5C00BDE8384000F054B85C1B0008581B000867
:101A6C00704700BF704700BF2DE9F047DFF87CA03E
:101A7C000646DAF8000098460F469146FFF7F0FF4D
:101A8C001B4B1B68D3F8484124B365681F2D26DC1B
:101A9C005EB96B1C0235DAF80000636044F82570FF
:101AAC00FFF7E0FF0020BDE8F087012304EB850180
:101ABC00C1F88890D4F88821AB401A43022EC4F8A0
:101ACC008821C1F80881E4D1D4F88C211343C4F8DF
:101ADC008C31DEE703F5A674C3F84841D5E7DAF894
:101AEC000000FFF7BFFF4FF0FF30DCE740040020A1
:101AFC004C1B0008F8B500BFF8BC08BC9E467047EC
:0C1B0C00F8B500BFF8BC08BC9E4670474E
:101B180000000000000000000000000000000000BD
:101B2800010203040607080900000000010203047B
:101B380044454255473A2000495744472052657367
:081B4800657400001800002084
:081B5000211A00083101000810
:041B58000D01000873
:101B5C00B3B401000024F4000000000000000000F9
:101B6C00000000000003000000000000040300203F
:101B7C006C030020D40300200000000000000000D3
:101B8C000000000000000000000000000000000049
:101B9C000000000000000000000000000000000039
:101BAC000000000000000000000000000000000029
:101BBC000000000000000000000000000000000019
:101BCC000000000000000000000000000000000009
:101BDC0000000000000000000000000000000000F9
:101BEC0000000000000000000000000000000000E9
:101BFC0000000000000000000000000000000000D9
:101C0C0000000000000000000000000000000000C8
:101C1C0001000000000000000E33CDAB34126DE665
:101C2C00ECDE05000B0000000000000000000000CE
:101C3C000000000000000000000000000000000098
:101C4C000000000000000000000000000000000088
:101C5C000000000000000000000000000000000078
:101C6C000000000000000000000000000000000068
:041F9C003C090020DC
:0400000508001225B8
:00000001FF
